S01600004C4344496E746572666163696E672E73726563D1
S11300000C942A000C9447000C9447000C9447006D
S11300100C9447000C9447000C9447000C94470040
S11300200C9447000C947F020C9447000C944700F6
S11300300C9447000C94B8010C9447000C944700AE
S11300400C9447000C9447000C9447000C94470010
S11300500C94470011241FBECFE5D8E0DEBFCDBF0E
S113006011E0A0E6B0E0EAEBF5E002C005900D92E5
S1130070AE39B107D9F722E0AEE9B1E001C01D9273
S1130080A838B207E1F70E9493010C94DB020C94A8
S113009000002F923F924F925F926F927F928F92C5
S11300A09F92AF92BF92CF92DF92EF92FF920F9303
S11300B01F93CF93DF9300D000D0CDB7DEB78091EC
S11300C09E0190919F01A091A001B091A101803F58
S11300D0984DAF4FBF4F71F41092A60110929E013C
S11300E010929F011092A0011092A10182E08093CE
S11300F087029EC0812C912C5401212C809187026F
S1130100843021F41A82198210928702EBEAF1E01A
S113011001900020E9F73197CF018B5A9140A0E07C
S1130120B0E00097A105B10509F464C0EFE9FFE070
S11301303197F1F700C00000FFEF8F1A9F0AAF0A52
S1130140BF0AEBEAF1E001900020E9F731979F0143
S11301502B5A31402901612C712C481659066A0624
S11301607B0609F047C0411451046104710409F489
S113017041C08091A601992787FD90959C012E5F2F
S11301803F4F3C832B830BEA11E0C22CD12CE12C92
S1130190F12C312C8A818983F80181918F018A8322
S11301A042E050E064E670E0CE0101960E94B302A2
S11301B0892BB1F43394832D90E02B813C818217F9
S11301C0930771F41092A60110929E0110929F0160
S11301D01092A0011092A10181E08093870228C0AF
S11301E03FEFC31AD30AE30AF30AC414D504E6049E
S11301F0F70481F68FE99FE00197F1F700C0000052
S11302009FEF891A990AA90AB90A80919E019091CF
S11302109F01A091A001B091A101805F984DAF4FC3
S1130220BF4F88169906AA06BB0608F467CF54CFB9
S11302300F900F900F900F90DF91CF911F910F911E
S1130240FF90EF90DF90CF90BF90AF909F908F90F2
S11302507F906F905F904F903F902F90089588EC1F
S1130260EBEAF1E0DF011D928A95E9F71092A5010E
S11302701092A4011092A3011092A201089584E0A7
S1130280809387020E944900809187028823D1F3DA
S11302900895CF93DF93EC010E942F012FEF83ED9C
S11302A090E3215080409040E1F700C000000E949C
S11302B03F0180918702823051F0BE018BEA91E0C8
S11302C00E94C10221E0892B19F420E001C020E042
S11302D0822FDF91CF910895CF93DF93EB010E949A
S11302E0A4028DE00E94A002CE010E944901DF9188
S11302F0CF91089569E871E08BE990E00E946C0168
S113030081110BC069E871E080EA90E00E946C0101
S1130310882331F080E990E0089580E990E0089521
S113032085E990E008950E944202789460E875E2BD
S113033080E090E00E9496028CE891E00E946302C3
S113034080EC0E94F4010E947A010E946302809171
S1130350A7019091A8010197D1F70E9472028BEA3C
S113036091E00E9463021092A8011092A701EFCFBE
S11303701F920F920FB60F9211242F938F939F9376
S1130380EF93FF932FB781E090E09093A8018093BF
S1130390A701E091A401F091A5018CB1E555FE4FB0
S11303A080838091A4019091A50101969093A50169
S11303B08093A4018091A4019091A501883C9105AA
S11303C041F41092A5011092A4011092A30110927D
S11303D0A2012FBFFF91EF919F918F912F910F90C9
S11303E00FBE0F901F90189595B3282F269526952C
S11303F0937C922B95BBA898A99A95E09A95F1F7CE
S11304000000A998EFE1F3E03197F1F700C0000094
S113041095B3880F880F937C892B85BBA99AF5E047
S1130420FA95F1F70000A9988FE39FE10197F1F79E
S113043000C00000089595B3282F26952695937C37
S1130440922B95BBA89AA99A95E09A95F1F700008A
S1130450A998EFE1F3E03197F1F700C0000095B3FC
S1130460880F880F937C892B85BBA99AF5E0FA95B0
S1130470F1F70000A9988FE39FE10197F1F700C01D
S1130480000008958FE384BB2FEF89EF90E02150A3
S113049080409040E1F700C0000082E00E94F40137
S11304A088E20E94F4018CE00E94F40186E00E943C
S11304B0F40181E00E94F4018FE39FE10197F1F7D9
S11304C000C000000895CF93DF93EC018881882356
S11304D031F021960E941B0289918111FBCFDF919B
S11304E0CF91089581E00E94F4018FE39FE1019789
S11304F0F1F700C0000080E80E94F40108951F9203
S11305000F920FB60F9211248F939F938091A9019C
S11305109091AA0101969093AA018093A9019F91B9
S11305208F910F900FBE0F901F9018958AB1886914
S11305308AB980B5866880BD87E689B910BC0895FC
S11305408CB95D9BFECF0895CF93DF93EC01888136
S1130550882331F021960E94A00289918111FBCF5A
S1130560DF91CF910895FB01DC014150504030F000
S11305708D910190801919F40020B9F7881B990B0B
S11305800895FB0151915523A9F0BF01DC014D9160
S113059045174111E1F759F4CD010190002049F0CC
S11305A04D9140154111C9F3FB014111EFCF81E099
S10D05B090E001970895F894FFCF3E
S11305BA0D0A4F4B0D0A0041542B4349504D4F44E9
S11305CA453D25640D0041542B4349504D55583D32
S11305DA25640D0041542B43474154543D310D00C9
S11305EA747275650066616C736500415445300028
S11305FA41540041542B434950534855540D00412A
S113060A542B434950434C4F53453D310D004154FB
S113061A2B435245473F0D002B435245473A20305E
S113062A2C310041542B43474154543F0D002B4372
S113063A474154543A20310041542B435354543DB6
S113064A2200220D0041542B43494943520D0041D3
S113065A542B43494653520D002E0041542B43490F
S113066A50535052543D310D0041542B4349505379
S113067A54415455530D00434F4E4E454354204F55
S113068A4B0041542B4349504D55583F0D002B43C1
S113069A49504D55583A20300041542B4349505340
S11306AA544152543D22544350222C220041542B8B
S11306BA43495053544152543D222564222C225416
S11306CA4350222C220041542B43495053454E4453
S11306DA0D003E0053454E44204F4B00456C656364
S11106EA74726F6E20536F6C7574696F6E00BE
S9030000FC
