S01600004C4344496E746572666163696E672E73726563D1
S11300000C942A000C9447000C9447000C9447006D
S11300100C9447000C9447000C9447000C94470040
S11300200C9447000C9410010C9447000C94470066
S11300300C9447000C94BF020C9447000C944700A6
S11300400C9447000C9447000C9447000C94470010
S11300500C94470011241FBECFE5D8E0DEBFCDBF0E
S113006012E0A0E6B0E0E4E8F6E002C005900D92EC
S1130070AA32B107D9F723E0AAE2B2E001C01D9287
S1130080A431B207E1F70E9449000C9440030C9498
S113009000000E94CD000E940A01789460E07BE495
S11300A080E090E00E94FB0287E990E00E94EE006D
S11300B080EC0E947F002FEF83E294EF2150804078
S11300C09040E1F700C000000E94FD000E9473020E
S11300D08823E1F32FEF87EA91E621508040904096
S11300E0E1F700C000000E9489022FEF87EA91E641
S11300F0215080409040E1F700C00000EBCF95B361
S1130100282F26952695937C922B95BBA898A99A7F
S113011095E09A95F1F70000A998EFE1F3E03197A3
S1130120F1F700C0000095B3880F880F937C892BEA
S113013085BBA99AF5E0FA95F1F70000A9988FE339
S11301409FE10197F1F700C00000089595B3282FAF
S113015026952695937C922B95BBA89AA99A95E00F
S11301609A95F1F70000A998EFE1F3E03197F1F7E0
S113017000C0000095B3880F880F937C892B85BB42
S1130180A99AF5E0FA95F1F70000A9988FE39FE1A9
S11301900197F1F700C0000008958FE384BB2FEFAF
S11301A086E791E0215080409040E1F700C00000D4
S11301B082E00E947F0088E20E947F008CE00E941F
S11301C07F0086E00E947F0081E00E947F008FE331
S11301D09FE10197F1F700C000000895CF93DF93EA
S11301E0EC018881882331F021960E94A600899130
S11301F08111FBCFDF91CF91089581E00E947F00B0
S11302008FE39FE10197F1F700C0000080E80E94AE
S11302107F00089580E481BB84E089BF1FBC0895FA
S11302201F920F920FB60F9211248F939F93809178
S11302302A0290912B02019690932B0280932A021A
S11302409F918F910F900FBE0F901F9018952F9232
S11302503F924F925F926F927F928F929F92AF9252
S1130260BF92CF92DF92EF92FF920F931F93CF939F
S1130270DF93CDB7DEB728970FB6F894DEBF0FBE75
S1130280CDBF80912C0290912D02A0912E02B091AD
S11302902F02803F984DAF4FBF4F71F4109234023C
S11302A010922C0210922D0210922E0210922F0204
S11302B083E680931303A6C0812C912C5401212C36
S11302C080911303853629F41A82198231E630931A
S11302D01303E7E3F2E001900020E9F73197CF013F
S11302E087539240A0E0B0E00097A105B10509F45E
S11302F06BC0EFE9FFE03197F1F700C00000FFEFBA
S11303008F1A9F0AAF0ABF0AE7E3F2E001900020C8
S1130310E9F731979F01275332406901E12CF12C11
S1130320C816D906EA06FB0609F04EC0C114D1046A
S1130330E104F10409F448C080913402992787FD4F
S113034090959C012F5F3F4F3C832B8307E312E082
S1130350412C512C612C712C322C8D829E82AF82C7
S1130360B88659018A818983F80181918F018A8332
S113037042E050E06DEA70E0CE0101960E9418035D
S1130380892BA1F43394832D90E08A159B0571F495
S11303901092340210922C0210922D0210922E020E
S11303A010922F0282E6809313032CC0FFEF4F1AA2
S11303B05F0A6F0A7F0A4C145D046E047F0491F691
S11303C08D809E80AF80B8848FE99FE00197F1F71C
S11303D000C000009FEF891A990AA90AB90A8091FE
S11303E02C0290912D02A0912E02B0912F02805FD9
S11303F0984DAF4FBF4F88169906AA06BB0608F45E
S11304005FCF4CCF28960FB6F894DEBF0FBECDBF9A
S1130410DF91CF911F910F91FF90EF90DF90CF90DC
S1130420BF90AF909F908F907F906F905F904F9010
S11304303F902F90089588ECE7E3F2E0DF011D92EE
S11304408A95E9F710923302109232021092310227
S113045010923002089585E6809313030E942701C9
S1130460809113038136D1F30895CF93DF93EC0188
S11304700E941B022FEF83ED90E3215080409040B7
S1130480E1F700C000000E942B0280911303833621
S113049049F0BE0187E392E00E942603892B11F004
S11304A00E94FD00CE010E94EE002FEF83ED90E349
S11304B0215080409040E1F700C0000081E0DF91CE
S11304C0CF910895CF93DF93EB010E9409038DE050
S11304D00E9405038AE00E940503CE010E943502B2
S11304E0DF91CF910895CF93CAE06CEE71E08CEE6A
S11304F090E00E94620281110AC06CEE71E081EF0B
S113050090E00E946202811102C0C15071F7CF9144
S113051008956CEE71E081EF90E00E9462020E9407
S1130520FD006CEE71E08FEE91E00E9462020E9489
S1130530FD006CEE71E089EF91E00E9462022FEF02
S11305408BE792E9215080409040E1F700C0000021
S11305506CEE71E082E192E00E9462022FEF8FE480
S113056093EC215080409040E1F700C000008AE104
S11305700E94050384E292E00E94EE0008951F9217
S11305800F920FB60F9211242F938F939F93EF9393
S1130590FF932FB781E090E0909336028093350269
S11305A0E0913202F09133028CB1E95CFD4F80831B
S11305B0809132029091330201969093330280939A
S11305C032028091320290913302883C910541F4C9
S11305D010923302109232021092310210923002C1
S11305E02FBFFF91EF919F918F912F910F900FBE8D
S11305F00F901F9018958AB188698AB980B586686A
S113060080BD88E089B910BC08958CB95D9BFECF8C
S11306100895CF93DF93EC018881882331F02196EC
S11306200E94050389918111FBCFDF91CF91089539
S1130630FB01DC014150504030F08D910190801954
S113064019F40020B9F7881B990B0895FB01519107
S11306505523A9F0BF01DC014D9145174111E1F784
S113066059F4CD010190002049F04D9140154111FC
S1130670C9F3FB014111EFCF81E090E001970895A8
S1070680F894FFCF18
S11306843138383300696F2E616461667275697438
S11306942E636F6D004D51545400456E7465722081
S11306A4557365726E616D6500456E7465722041A3
S11306B4494F206B657900456C656374726F6E20D5
S11306C4536F6C7574696F6E000D0A4F4B0D0A00FD
S11306D441542B4353513D25640D0A0041542B438B
S11306E453510041542B4349504D4F44453D2564D7
S11306F40D0041542B4349504D55583D25640D007C
S113070441542B43474154543D310D004154453029
S11307140041540041542B434950534855540D004F
S113072473656E64207368757420636F6D6D616E98
S1130734640041542B434950434C4F53453D310DC0
S11307440041542B435245473F0D002B4352454728
S11307543A20302C310041542B43474154543F0D2B
S1130764002B43474154543A20310041542B435302
S113077454543D2200220D0041542B434949435211
S11307840D0041542B43494653520D002E0041544D
S11307942B434950535052543D310D0041542B4383
S11307A449505354415455530D00434F4E4E454301
S11307B454204F4B0041542B4349504D55583F0D41
S11307C4002B4349504D55583A20300041542B4393
S11307D4495053544152543D22544350222C220034
S11307E441542B43495053544152543D22256422CD
S11307F42C22544350222C220041542B434950535D
S1130804454E440D003E0053454E44204F4B004199
S1130814542B434D47463D310041542B434D4753DC
S11308243D222B393737393836303038363339317D
S11308342200546573742046726F6D204E6973638D
S10D084468616C0073656E740000B7
S9030000FC
